:020000040800F2
:10000000F03400201D030008250300082703000822
:10001000290300082B0300082D030008000000003E
:100020000000000000000000000000003D02000889
:10003000310300080000000099020008191F0008A1
:10004000370300083703000837030008FD1E0008C7
:100050003703000837030008370300083703000898
:10006000370300083703000837030008E1090008D8
:10007000090A0008410A000837030008370300088E
:100080003703000837030008370300083703000868
:100090003703000837030008370300083703000858
:1000A0003703000837030008370300083703000848
:1000B00037030008000000000000000037030008BC
:1000C0003703000837030008370300083703000828
:1000D000370300083703000837030008AD23000882
:1000E000370300083703000800000000000000008C
:1000F0000000000000000000000000000000000000
:10010000000000003703000800000000370300086B
:100110000000000000000000B121000837030008C3
:1001200037030008370300083703000837030008C7
:10013000370300080000000000000000000000007D
:1001400037030008370300083703000800000000E9
:100150003703000837030008370300083703000897
:1001600037030008370300083703000800000000C9
:1001700037030008370300080000000000000000FB
:1001800037030008370300083703000800F002F8BF
:1001900000F041F80AA090E8000C82448344AAF1E0
:1001A0000107DA4501D100F036F8AFF2090EBAE8DE
:1001B0000F0013F0010F18BFFB1A43F0010318479B
:1001C000385C0000585C0000103A24BF78C878C141
:1001D000FAD8520724BF30C830C144BF04680C604D
:1001E000704700000023002400250026103A28BF95
:1001F00078C1FBD8520728BF30C148BF0B60704799
:10020000782900F0F380002070471FB505F048FD05
:100210001FBD10B510BD00F0B8FA114603B402F0CE
:100220000DFA03BCFFF7F1FF03F028FF00F0D2FA4C
:1002300003B4FFF7EEFF03BC00F0DAFA2C4B1968A9
:10024000086800F05AB880F30988BFF36F8F4FF049
:10025000000080F311887047000000000848006823
:10026000006880F308884FF0000080F3148862B6BD
:1002700061B6BFF34F8FBFF36F8F00DF00BF00BFCA
:1002800008ED00E0DFF80C00016841F47001016046
:10029000704700BF88ED00E0EFF30980BFF36F8F78
:1002A000134B1A681EF0100F08BF20ED108A20E9CA
:1002B000F04F106009B44FF0100080F31188BFF3C5
:1002C0004F8FBFF36F8F04F0FFFE4FF0000080F3FD
:1002D000118809BC1968086800F014B81EF0100FE6
:1002E00008BF00F014B880F30988BFF36F8F704720
:1002F00048000020EFF30580704730C8B0E8C04FD9
:10030000FFF7A1BF30C8B0E8C04FFFF7E7BFB0ECC0
:10031000088AB0EC08CAFFF7E6BF0000094880472A
:1003200009480047FEE7FEE7FEE7FEE7FEE7FEE7D7
:10033000FEE7FEE7FEE7FEE704480549054A064BEF
:1003400070470000612100088D010008F02E002098
:10035000F0340020F0300020F03000200FB41CB545
:10036000074B06AA7B4469460090059800F0D3F934
:100370000020694600F0E2F91CBC5DF814FB0000A7
:10038000D50300002DE9F0410E460446002020620E
:100390002046E168884730B3252805D0D4E90121FB
:1003A0009047206A401CF2E7E16820460027884712
:1003B000050018D0A5F14100192802D820354FF4C6
:1003C00000673246294620462760FFF719FF40B1F3
:1003D000012804D0F61D26F007060836D8E7361D9A
:1003E000D6E72846DAE7206ABDE8F08170B5044612
:1003F0000D4621461068AFF300802188090502D51B
:100400000F4A7A4402E00E4A7A440E32002104F187
:10041000240305E000F00F060009965D5E54491CB8
:100420000028F7D120780023000704D5702D02D0D2
:1004300009B1022311322046BDE8704000F00CB92A
:10044000CA59000030B505460B462A4613F8014B41
:1004500012F8010B08B1A042F8D01CB1002802D05C
:100460006D1CF1E7284630BD40EA0103024630B575
:100470009B0710D14FF0013400E008C208C91D1BD2
:100480009D4315EAC41FF8D013F0FF0102F8011BC9
:100490000DD01B0AF8E711F8013B002B02F8013BD5
:1004A00005D011F8013B002B02F8013BF3D130BD20
:1004B00010B5431C02E010F8011B71B18107FAD19D
:1004C0004FF0013202C88C1A8C4314EAC211F9D0E1
:1004D000C01A0A0603D0C01E10BDC01A10BD0A04FF
:1004E00001D0801E10BD0902FCD0401E10BD421E6E
:1004F00012F8013F002BFBD111F8013B002B02F851
:10050000013BF9D17047032A40F2308010F0030C10
:1005100000F0158011F8013BBCF1020F624498BF56
:1005200011F801CB00F8013B38BF11F8013BA2F1F3
:10053000040298BF00F801CB38BF00F8013B11F06E
:10054000030300F02580083AC0F0088051F8043B0E
:10055000083A51F804CBA0E80810F5E7121D5CBF7B
:1005600051F8043B40F8043BAFF30080D20724BFAE
:1005700011F8013B11F801CB48BF11F8012B24BF42
:1005800000F8013B00F801CB48BF00F8012B704791
:1005900010B5203AC0F00B80B1E81850203AA0E81E
:1005A0001850B1E81850A0E81850BFF4F5AF5FEA52
:1005B000027C24BFB1E81850A0E8185044BF18C905
:1005C00018C0BDE810405FEA827C24BF51F8043BAC
:1005D00040F8043B08BF7047D20728BF31F8023B00
:1005E00048BF11F8012B28BF20F8023B48BF00F894
:1005F000012B704702F0FF0343EA032242EA024262
:1006000000F0A3B84FF0000200B51346944696469A
:10061000203922BFA0E80C50A0E80C50B1F1200115
:10062000BFF4F7AF090728BFA0E80C5048BF0CC0C3
:100630005DF804EB890028BF40F8042B08BF704721
:1006400048BF20F8022B11F0804F18BF00F8012B93
:1006500070477047704770472DE9F0470D4699463F
:100660009246044600F124080168880604D5E06932
:1006700021F01001216000E00120A84201DD471BAC
:1006800000E00027A1697A1902EB0900081AA061AD
:100690002078C00602D42046AFF30080002608E090
:1006A000D4E901211AF806009047206A401C761C04
:1006B00020624E45F4DB2078C0060AD52046AFF311
:1006C000008006E0D4E9012130209047206A401CD8
:1006D0002062381EA7F10107F4DC07E0D4E901210C
:1006E00018F805009047206A401C2062281EA5F1DA
:1006F0000105F3DC2046AFF300802078000602D528
:100700000220BDE8F0870120FBE7000001694A1CD8
:1007100002610878704700B58FB0CDE90131002142
:10072000059105497944CDE9031011466846FFF764
:1007300029FE0FB000BD0000E5FFFFFF0A6802F8C8
:10074000010B0A6070474FF000020429C0F01280CC
:1007500010F0030C3FF458AFCCF1040CBCF1020FC5
:1007600018BF00F8012BA8BF20F8022BA1EB0C0149
:10077000FFF74ABF5FEAC17C24BF00F8012B00F8F5
:10078000012B48BF00F8012B7047754600F02CF88C
:10079000AE4605006946534620F00700854618B06E
:1007A00020B5FFF7C9FDBDE820404FF000064FF02F
:1007B00000074FF000084FF0000B21F00701AC4696
:1007C000ACE8C009ACE8C009ACE8C009ACE8C009B5
:1007D0008D46704710B50446AFF300802046BDE853
:1007E0001040FFF725BD0000004870478C2E002008
:1007F00001491820ABBEFEE726000200704700004A
:1008000070B586B0002600BF394880683949084075
:1008100040F010003649886000BF002006E03649ED
:1008200031F810102DF81010411CC8B20A28F6DB60
:10083000002012E03DF81020411C3DF811108A42C2
:1008400009DD3DF81040411C3DF811102DF8101045
:10085000411C2DF81140411CC8B20928EADB0020D8
:1008600012E03DF81020411C3DF811108A4209DACF
:100870003DF81040411C3DF811102DF81010411C9E
:100880002DF81140411CC8B20928EADB002005E020
:100890003DF8101031448EB2411CC8B20828F7DB75
:1008A0003046F11706EB5171C1F3CF0440F26640B8
:1008B000844201DD0A250AE0B4F5747F01DA0025DF
:1008C00005E0A4F574700F2190FBF1F085B224B916
:1008D000032003F09FFB85B203E02946032003F0C9
:1008E000B7FB034800F062F9E8B206B070BD000043
:1008F00000000450C0FFFF7FA400002070B5324804
:100900000121324A4B1E324CE35C0344DA6000BFE3
:10091000304A4B1EE35C03449A6000BF0A224B1E20
:10092000E35C03445B686FF30F0313434C1E284DD5
:100930002C5D0444636000BF00BF4A1E2B469A5CD6
:10094000825842F001034A1E2C46A25C835000BF2D
:1009500000BF2048403880681F4908401D49403981
:10096000886000BF00BF084680681C49084040F00E
:10097000805018494039886000BF002002E000BF65
:10098000411C88B240F6B8318842F8DB00BF1148FC
:100990004038806811490840401C0E494039886041
:1009A00000BF00BF00BF0B484038006800F00100E6
:1009B0000028F7D000BF012006494039086000BF79
:1009C000084600F0F3F870BD00000240A4000020CB
:1009D000AA5C000840000450C0FFFF5FC0FFFF7F1B
:1009E00000BF02200749486000BF00BF08204860E0
:1009F00000BF00BF0420486000BF00BF0120486066
:100A000000BF70470000024010B5052001F0A6FDB0
:100A100002210A4800F0FEF800BF20200749486084
:100A200000BF00BF8020486000BF00BF402048607A
:100A300000BF00BF1020486000BF10BD0000024092
:100A400010B5052001F08AFDFF201449087003212C
:100A5000134800F0DFF8124800F0D4F8104800F016
:100A6000D5F80F4800F0CAF80D4800F0C3F803218C
:100A70000B4800F0DDF80B4A0321094800F034F977
:100A800050220321064800F00DF90321044800F02C
:100A9000DDF8054800F0BAFC10BD0000140000208D
:100AA00000000240EC0000200048004000BF0A485F
:100AB000C06840F001000849C86000BF00BF6FF087
:100AC0000100086100BF00BF0846006840F0010057
:100AD000086000BF704700000010004070B5044679
:100AE0000D460126074800F026F838B92868A168A5
:100AF00021F47C110143A16000BF00E000263046D4
:100B000070BD00000000045070B505460C4601267B
:100B1000284600F010F858B9D4E900010843A1684C
:100B20000843E96844F2380291430843E86000E072
:100B30000026304670BD0146886800F0010070470D
:100B400070B505460C460126606800B100BF284616
:100B5000FFF7F1FF20BB606870B1A168206808430F
:100B6000E16808432169084361690843E9680E4A5E
:100B700011400843E8600BE0E16820680843216900
:100B8000084361690843E968074A11400843E8607F
:100B90006068296B21F00F010143296300BF00E069
:100BA0000026304670BD00003CC0F0FF8168024A5C
:100BB0001140091D81607047C0FFFF7F08B50549DE
:100BC000C96C0143034AD1641146C96C01400091CC
:100BD00000BF08BD0010024008B50549896D0143FA
:100BE000034A91651146896D0140009100BF08BD1F
:100BF000001002404FF48071416070474FF48061F3
:100C0000416070474FF40071416070474FF40061DC
:100C10004160704710B54A1E044B9A5C825822F01E
:100C200001034A1E014CA25C835010BDE05C000829
:100C300010B54A1E044B9A5C825822F002034A1EE9
:100C4000014CA25C835010BDE05C000810B54A1E48
:100C5000044B9A5C825842F001034A1E014CA25C8C
:100C6000835010BDE05C000810B54A1E044B9A5C2E
:100C7000825842F002034A1E014CA25C835010BD10
:100C8000E05C000830B54B1E054CE35CC35823F410
:100C9000405313434C1E024D2C5D035130BD0000E8
:100CA000545D000830B54B1E064CE35C03445B68A2
:100CB0006FF30F0313434C1E024D2C5D044463601D
:100CC00030BD0000E05C000830B54B1E054CE35C15
:100CD000C35844F21004A34313434C1E014D2C5D32
:100CE000035130BD545D000810B54B1E024CE35C4F
:100CF0000344DA6010BD0000E05C000830B54B1E14
:100D0000054CE35CC35823F0800313434C1E024D93
:100D10002C5D035130BD0000545D000830B54B1E02
:100D2000054CE35CC35823F4406313434C1E024D4F
:100D30002C5D035130BD0000545D000830B54B1EE2
:100D4000054CE35CC35823F0200313434C1E024DB3
:100D50002C5D035130BD0000545D000810B54B1EE2
:100D6000024CE35C03449A6010BD0000E05C0008A4
:100D700030B54B1E054CE35CC35823F040031343CE
:100D80004C1E024D2C5D035130BD0000545D000827
:100D900030B5D0F8A8304C1EA5000F24AC40A343BA
:100DA0004C1EA5000F24AC4094FAA4F4B4FA84F4C9
:100DB00002FA04F42343C0F8A83030BD30B54B1E0E
:100DC000054CE35CC35823F4407313434C1E024D9F
:100DD0002C5D035130BD0000545D0008F0B50346A2
:100DE0000A46106890FAA0F0B0FA80F47BE0012582
:100DF000A540106800EA0501002973D050681D68FD
:100E000091FAA1F6B6FA86F677000326BE40B543FE
:100E100091FAA1F6B6FA86F6760000FA06F63543A0
:100E20001D6000BF5068012802D05068022814D10C
:100E300090689D6891FAA1F6B6FA86F677000326C7
:100E4000BE40B54391FAA1F6B6FA86F6760000FAEE
:100E500006F635439D6000BF00BF1069DD6891FA5A
:100E6000A1F6B6FA86F677000326BE40B54391FA9E
:100E7000A1F6B6FA86F6760000FA06F63543DD608E
:100E800000BF506802282DD1FF2914D850691D6A6F
:100E900091FAA1F6B6FA86F6B7000F26BE40B54322
:100EA00091FAA1F6B6FA86F6B60000FA06F63543D0
:100EB0001D6200BF16E050695D6A0E0A96FAA6F63A
:100EC000B6FA86F6B7000F26BE40B5430E0A96FA6C
:100ED000A6F6B6FA86F6B60000FA06F635435D6267
:100EE00000BF00BF641C1068E04000287FF47FAFA3
:100EF0005068012802D05068022809D1D5681068CE
:100F00005E68864300FB05F73E435E6000BF00BF9E
:100F10000120F0BD024610690840884201D101203D
:100F200070470020FCE7024610690840884201D162
:100F3000012070470020FCE78162704781627047A2
:100F4000816270478162704781627047816170473A
:100F5000816170478161704781617047816170472D
:100F600030B5036891FAA1F4B4FA84F4650003245F
:100F7000AC40A34391FAA1F4B4FA84F4640002FAF9
:100F800004F42343036030BD42694A404261704724
:100F900038B501203B49096E01433A4A11661146B2
:100FA000096E0140009100BF00BF0007FFF714FE6B
:100FB00003200246344B19684FF6FF031940334BA8
:100FC0000B4343EA0221304B196000BF01F0AAFA3B
:100FD00005460022114600F075FE044621466FF0DA
:100FE0000B0001F0A7FA01F09DFA05460022114618
:100FF00000F068FE044621466FF00A0001F09AFAFC
:1010000001F090FA05460022114600F05BFE04460E
:1010100021466FF0090001F08DFA01F083FA0546D0
:101020000022114600F04EFE044621466FF00400F7
:1010300001F080FA01F076FA05460022114600F030
:1010400041FE044621466FF0030001F073FA01F0FF
:1010500069FA05460022114600F034FE0446214696
:101060006FF0010001F066FA01F05CFA054600221B
:10107000114600F027FE044621464FF0FF3001F0F4
:1010800059FA38BD001002400CED00E00000FA05EE
:101090004FF47A71B0FBF1F2521E4FF0E0235A6127
:1010A00000229A6105221A6100BF70470249C9688F
:1010B0008143014AD1607047007000400249C9680D
:1010C0000143014AD1607047007000400448006845
:1010D00040F4000002499439C1F8940070470000C0
:1010E000941002400448006840F4004002499039DE
:1010F000C1F8900070470000901002402DE9F041C7
:1011000004460025032C29D1204600F085F8B0F5CF
:10111000403F17D06FF44031084420B1012806D079
:10112000022819D108E000F021FE054615E000F084
:101130007DF800B1374D10E000F080F808B14FF4B1
:1011400000450AE000F012FE074600F0DBFD06460F
:1011500000F0FAFD054600E000BF57E00C2C29D155
:10116000204600F059F8B0F5402F17D0A0F54020E8
:10117000001F20B1042806D0082819D108E000F08B
:10118000F5FD054615E000F051F800B1214D10E0E5
:1011900000F054F808B14FF400450AE000F0E6FD15
:1011A000074600F0AFFD064600F0BCFD054600E036
:1011B00000BF2BE0302C29D1204600F02DF8B0F5EF
:1011C000401F17D0A0F54010103820B1102806D0CD
:1011D000202819D108E000F0C9FD054615E000F00F
:1011E00025F800B10B4D10E000F028F808B14FF4DD
:1011F00000450AE000F0BAFD074600F083FD064610
:1012000000F090FD054600E000BF00BF2846BDE8A5
:10121000F08100000024F400014603480068084003
:1012200040EA014070470000881002400248006810
:10123000C0F38020704700000010024002480068A0
:10124000C0F3400070470000901002400248006860
:1012500000F0F000704700000010024002480068F3
:1012600000F470607047000094100240024800686B
:10127000C0F3C00070470000001002400248C06880
:1012800000F0700070470000001002400248C06883
:1012900000F0030070470000001002400248C068E0
:1012A000C0F3062070470000001002406FF080017C
:1012B000C1607047CA214162532141627047FF21DA
:1012C00041627047F8B505464FF47A7000900126E8
:1012D000284600F048F8D0B900BFB01EE86000BF53
:1012E000284600F040F804460DE000F041F80128DF
:1012F00002D10098401E0090284600F034F80446C1
:10130000009800B90026009808B1012CEDD13046B4
:10131000F8BD70B504460D4600262046FFF7CAFF0B
:101320002046FFF7CFFFC8B12868A16821F040012F
:101330000143A16000BFA86821696FF30E0101435A
:10134000216100BF6868216921F4FE0141EA004182
:10135000216100BF2046FFF7A9FF01262046FFF7C5
:10136000AEFF304670BD0146C868C0F380107047BC
:101370004FF0E0200069C0F3004070470149086069
:10138000704700002800002010B5024613681C4872
:10139000824202D0B2F1804F04D123F070004C6839
:1013A00040EA04031648824208D0B2F1804F05D0CB
:1013B0001448824202D01448824204D123F440707F
:1013C000CC6840EA040313608868D06200BF0888D4
:1013D000906200BF0A48824205D00A48824202D089
:1013E0000948824203D1087C106300BF00BF00BFE0
:1013F000506940F00100506100BF012010BD0000A5
:10140000002C01400040014000440140016841F0CF
:1014100010010160704700002DE9F04104460D46BF
:1014200000270026204600F065F8002857D1E9681B
:101430006868084329690843A96908432168294A5B
:10144000114008432060A868616821F440510143BD
:10145000616000BF6869A16821F440710143A16027
:1014600000BF2148844204D10320FFF747FE06460F
:101470000EE01E48844204D10C20FFF73FFE0646D2
:1014800006E01B48844203D13020FFF737FE0646B2
:101490002EB3286818B301273146AB692868B3F525
:1014A000004F12D14FEA410808EB5008B8FBF0F8A2
:1014B0001FFA88F24FF6F07802EA080CC2F34208ED
:1014C0004CEA080CC4F80CC007E001EB5008B8FB6C
:1014D000F0F81FFA88F8C4F80C8000BF00BF384647
:1014E000BDE8F081F369FFEF00380140004400409F
:1014F000004800400146086800F001007047000005
:1015000010B5002035490870502203213448FFF7F8
:10151000C9FB344A03213248FFF720FC0022022194
:101520002F48FFF7BFFB2F4A121D02212C48FFF75F
:1015300015FC00BF2B482438806840F04000294942
:101540002439886000BF00BF0846806840F08000F2
:10155000886000BF00BF1020086200BF00BF0820E5
:10156000086200BF00BF0220086200BF00BF042065
:10157000086200BF00BF0120086200BF0846FFF7F5
:1015800045FF00BF17482438806840F00100154926
:101590002439886000BF1248FFF734FB1048FFF77A
:1015A00035FB0F48FFF72AFB0D48FFF723FB03210C
:1015B0000B48FFF73DFB0C4A03210948FFF794FB5A
:1015C000502203210648FFF76DFB03210448FFF773
:1015D0003DFB08210548FFF7B1FC10BD15000020B8
:1015E0000000024024480040EC00002000040048B5
:1015F0000EB522480078002839D10E201F49087006
:1016000040211F48FFF79AFC4FF480711C48FFF7F8
:1016100095FC80211A48FFF791FC1A4801901A485E
:10162000009041F2883000F099FF002017490870BF
:1016300001208DF8080002A9002002F0EDF801A9B0
:10164000012002F0E9F86946022002F0E5F80020E6
:101650008DF8080002A9062002F0DEF802A9072092
:1016600002F0DAF802A9032002F0D6F800BF002049
:101670000249C8700871887048700EBD16000020BD
:10168000000800486047821C401A321E15000020E6
:1016900010B500BF0948006820F001000749086044
:1016A00000BF08210648FFF751FC00BF034800684F
:1016B00020F020000149086000BF10BD0048004034
:1016C000000400487047000010B52E48807A0D28AD
:1016D00042D2DFE800F018071A1034350F19222A19
:1016E00032333D0001202849087080212748FFF748
:1016F00023FC35E000BF022023490870C1012348C4
:10170000FFF71AFC2CE000BF00BF03201E49087041
:1017100080211E48FFF710FC22E004201A490870BF
:1017200080211A48FFF708FC1AE0052016490870C6
:1017300080211648FFF700FC12E000BF00BF00BF89
:1017400007201149087040211048FFF7F5FB07E01A
:1017500008200D49087003E000200B49087000BF05
:1017600000BF00200749C87008718871FF204871C8
:1017700001F004FB034908700549081F01F0B8FA9D
:1017800010BD000098000020240000200008004840
:101790005001002070B590B04FF40050FFF70EFAE2
:1017A00080200090032001900020049069464FF0B3
:1017B0009040FFF713FB002201214C48FFF7E8FAA5
:1017C000002201214948FFF77FFA00220121474802
:1017D000FFF758FA202201214448FFF7AFFA002210
:1017E00001214248FFF7C4FA802201213F48FFF758
:1017F00085FA4FF4807201213C48FFF7DFFA4FF47D
:10180000806201213948FFF789FA00200D900E907F
:101810000F900DA93648FFF777F900200790089040
:1018200009904FF400500A9003200B904FF4805021
:101830000C9007A92E48FFF783F900202C4909696D
:1018400040F2034291430143294A116100BF00BFA6
:101850001046406820F004001146486000BF00BFF9
:101860000846406820F00800486000BF4FF4403050
:10187000069006A91F48FFF731F91D4906201E4AA8
:1018800001F13004050A04EB85031F2585401C681F
:10189000AC43950E85402C431C6000BF10460022CF
:1018A00001F11404C0F3406504EB8503C0F3045652
:1018B0000725B5401C68AC43C0F3045502FA05F592
:1018C0002C431C6000BF7F21094AB0321368C0F36B
:1018D0001202934301F01804084AE2400240134305
:1018E000034AC2F8B03000BF10B070BD0000024023
:1018F000000004500003045000106032FFFF070096
:1019000038B501201C49896C01431B4A916411467A
:10191000896C0140009100BF00BF00F003FE054646
:101920000022114600F0CEF9044621460B2000F0BB
:1019300001FE0B2000F0E8FD00F0F4FD054600225A
:10194000114600F0BFF9044621460C2000F0F2FDDC
:101950000C2000F0D9FD00F0E5FD054600221146FF
:1019600000F0B0F9044621460D2000F0E3FD0D2003
:1019700000F0CAFD38BD00000010024000B587B07D
:101980000120FFF71BF90220FFF718F90420FFF7E9
:1019900015F942F228012748FFF7E0FA4FF4E07109
:1019A0002548FFF7DBFA4FF480512348FFF7CCFAC4
:1019B00010212048FFF7C8FA05200190002002906E
:1019C000059001A94FF09040FFF708FA4FF400503E
:1019D00001900120029002200390002004900590C5
:1019E00001A91448FFF7FAF94FF480400190002054
:1019F0000290059001A90F48FFF7F0F94FF48E50BF
:101A0000019001200290002003900490059001A90C
:101A10000948FFF7E3F938200190012002900020E7
:101A200003900490059001A90248FFF7D7F907B089
:101A300000BD0000000400480008004800BF4CF64C
:101A4000CC401249086000BF00BF45F25550086005
:101A500000BF0620486000BF40F6FF70086100BF6D
:101A600000BF886000BF00BF00BF0848C06800F02A
:101A7000070008B9012000E000200128F4D100BFD0
:101A80004AF6AA200149086000BF704700300040B4
:101A900000BF4CF6CC401349086000BF00BF45F2C0
:101AA0005550086000BF0620486000BF40F6FF7038
:101AB000086100BF40F2E240886000BF00BF00BF85
:101AC0000848C06800F0070008B9012000E00020C5
:101AD0000128F4D100BF4AF6AA200249086000BFDD
:101AE00070470000003000400EB5FFF7FBFA002001
:101AF00000907F200190FF20029069460148FFF787
:101B000008FC0EBD0028004030B585B01020FFF75E
:101B100063F800F007FD05460022114600F0D2F8F8
:101B200004462146362000F005FD362000F0ECFC8E
:101B30004FF47A60ADF8000000200190642002901C
:101B400069460E48FFF720FC00BF0C48006840F0D3
:101B500080000A49086000BF0020496821F0700138
:101B60000143064A516000BF00BF1046806820F064
:101B700080001146886000BF05B030BD00100040F5
:101B800030B58DB04FF48020FFF726F84FF4406059
:101B90000090022001900320029000200390049006
:101BA0000720059069464448FFF718F902220321EF
:101BB0004248FFF7EDF8002203214048FFF784F880
:101BC000002203213D48FFF75DF8002203213B4836
:101BD000FFF7B4F8002203213848FFF7C9F8802244
:101BE00003213648FFF78AF8002203213348FFF724
:101BF000E5F8002203213148FFF790F80222114650
:101C00002E48FFF7C5F8102202212C48FFF75CF898
:101C1000002202212948FFF735F800220221274837
:101C2000FFF78CF8002202212448FFF7A1F8802258
:101C300002212248FFF762F8002202211F48FFF725
:101C4000BDF8002202211D48FFF768F800F06AFC89
:101C500005460022114600F035F8044621462720AB
:101C600000F068FC272000F04FFC4FF4165006905F
:101C700000200790089009900C200A9000200B90FB
:101C80000C9006A90E48FFF7C7FB00BF0C48406840
:101C900020F490400A4948600846806820F02A00F5
:101CA000886000BF00BF0846006840F0010008607F
:101CB00000BF0DB030BD0000000800480000024029
:101CC00000480040F0B503460C4603F00701C1F19F
:101CD0000700042801D9042001E0C1F107000646ED
:101CE000081D072801D2002000E0C81E054601207B
:101CF000B040401E2040A8400127AF407F1E174043
:101D00003843F0BD014600BF0448806800F0F00091
:101D10000009034A125C21FA02F0704700100240E9
:101D2000885D0008014600BF0548806800F4E06057
:101D3000044A02EB1020027821FA02F070470000FA
:101D400000100240985D0008014600BF0548806809
:101D500000F46050044A02EBD020027821FA02F02D
:101D60007047000000100240985D000810B500BFE9
:101D70002948806800F00C0030B1042822D00828DF
:101D800022D00C2826D121E0FFF770FA60B9FFF7C6
:101D90006DFA10B1FFF75AFA01E0FFF75FFA000A97
:101DA0001E4951F820000BE0FFF760FA10B1FFF771
:101DB0004DFA01E0FFF752FA0009184951F82000E6
:101DC000044625E0164C23E0164C21E000F02CF8E8
:101DD00004461DE0FFF74AFA60B9FFF747FA10B171
:101DE000FFF734FA01E0FFF739FA000A0B4951F81E
:101DF00020000BE0FFF73AFA10B1FFF727FA01E0F5
:101E0000FFF72CFA0009054951F82000044600BFED
:101E100000BF204610BD000000100240A05D000879
:101E20000024F40000127A0070B5FFF72FFA05467F
:101E3000012D04D0022D20D0032D22D11FE0FFF769
:101E400015FA60B9FFF712FA10B1FFF7FFF901E0D8
:101E5000FFF704FA000A254951F820000BE0FFF7CC
:101E600005FA10B1FFF7F2F901E0FFF7F7F9000901
:101E70001E4951F82000044621E01D4C1FE01D4C76
:101E80001DE0FFF7F3F960B9FFF7F0F910B1FFF7C4
:101E9000DDF901E0FFF7E2F9000A144951F82000EA
:101EA0000BE0FFF7E3F910B1FFF7D0F901E0FFF71E
:101EB000D5F900090D4951F82000044600BF00BFC4
:101EC000FFF7DCF9012101EB1010B4FBF0F6FFF78E
:101ED000E5F946430848C06800F0C060012101EB05
:101EE00050604000B6FBF0F070BD0000A05D00083F
:101EF0000024F40000127A000010024000BF0548E0
:101F0000C06800F0800060F490600249C86000BFC3
:101F1000704700000028004010B54FF0E020006935
:101F200003F080FC012801D003F04AF910BD000045
:101F300070B500207949096821F007010143774A0B
:101F4000116000BF00BF1046006800F0070018B124
:101F5000B92173A000F0D6FA4FF400707D490968EA
:101F600021F4C06101437B4A116000BF00BF7A4881
:101F7000006840F0010078499439C1F8940000BF2E
:101F800000BF00BF74480068C0F340000028F8D0CC
:101F900000BF71489438006840F001006E499439E0
:101FA000086000BF00BF00BF6B4894380068C0F3F2
:101FB00040000028F7D000BF67489438006840F020
:101FC000080065499439086000BF6020096821F065
:101FD000F0010143604A943A116000BF00201146AD
:101FE000496821F47F4141EA0021516000BF00BFF0
:101FF0005848006840F480705649086000BF00BF30
:102000005548001F006840F480301146C1F8900028
:1020100000BF00BF0846D0F8900020F48030C1F81F
:10202000900000BF48154C49091F096821F4407110
:102030000143C2F8901000BFFFF754F80020464952
:102040009439896821F003010143434A943A91602D
:1020500000BF00BF00BF40489438806800F00C000B
:102060000028F7D100BF3C499439896821F0F0017C
:102070000143394A943A916000BF00BF1146896814
:1020800021F4E0610143916000BF00BF11468968FF
:1020900021F460510143916000BF3048FEF7F8FF22
:1020A0000420042808D14FF0E021096941F004011F
:1020B0004FF0E022116107E04FF0E021096921F0C3
:1020C00004014FF0E022116100BF2448FFF756F9E8
:1020D0004FF4401020490C39096821EA104182B2BE
:1020E00011431D4A943AC2F8881000BF00021A49F1
:1020F0000C39096821F040510143C2F8881000BF33
:1021000000F010FA054600221146FFF7DBFD0446F9
:1021100021464FF0FF3000F00DFA70BD0020024064
:102120005254455C4465766963655C53544D333263
:102130004C343331524354785C5354437562654791
:10214000656E6572617465645C5372635C6D616930
:102150006E2E6300007000409410024000093D00A4
:102160001048006840F470000E4908600E4800688E
:1021700040F001000C4908600020886008460068B3
:102180000A490840084908608814C8600846006881
:1021900020F48020086000208861C803014980394C
:1021A0000860704788ED00E000100240FFFFF6EA8B
:1021B00010B500BF7A48006900F00100002870D017
:1021C00000BF6FF001007649086100BF75480078D4
:1021D0000A2867D2DFE800F00506361473448C8DB8
:1021E0009BA900BF80217048FEF7AAFE40216E48DF
:1021F000FEF7AEFE4FF480716B48FEF7A9FECDE00E
:1022000040216948FEF7A4FE4FF480716648FEF74E
:102210009FFE64488078401C624988700846807838
:10222000192806DD0020887080215F48FEF790FEA7
:1022300007E05C488078162803D180215A48FEF7D1
:102240007FFEABE080215848FEF782FE40215648D1
:10225000FEF77EFE4FF480715348FEF771FE9DE05D
:1022600040215148FEF774FE4FF480714E48FEF74E
:102270006FFE4C488078401C4A4988700846807838
:1022800003281BDD0020887008464078401C4870F9
:1022900008464078052806DA80214348FEF774FE98
:1022A0000CE07CE079E080213F48FEF751FE3D489C
:1022B0004078072802DD00203A4948706EE040214E
:1022C0003948FEF745FE4FF480713748FEF740FE6F
:1022D00034488078401C3349887008468078042848
:1022E00005DD0020887080212F48FEF74DFE55E067
:1022F00000BF80212C48FEF72BFE40212A48FEF724
:102300001FFE4FF480712848FEF722FE46E0802130
:102310002548FEF715FE40212348FEF711FE4FF435
:1023200080712148FEF70CFE38E080211E48FEF740
:102330000FFE40201C4949690140814201D1012121
:1023400000E00021A1B117488078401C1549887031
:102350000846807803281FDD00208870402112483D
:10236000FEF7EEFD4FF480710F48FEF7F1FD13E02C
:102370000C488078401C0B498870084680780328F8
:102380000ADD0020887040210748FEF7E1FD4FF488
:1023900080710548FEF7D4FD00E000BF00BF10BD0E
:1023A0000010004024000020000800483EB5002036
:1023B000029000BF4C48C069C0F3001000284ED006
:1023C00000BF10204849086200BF03214748FEF7BC
:1023D00021FC464803214A1E454B9A5C0244526840
:1023E00092B21446C4F1500084B2002C13DD502C7C
:1023F00011DA40480190E0B28DF8020001208DF81A
:1024000000003D48007830B1002302AA69463B48ED
:10241000006803F019F83548FEF7F4FB3348FEF77F
:10242000F5FB3248FEF7EAFB3048FEF7E3FB0321F9
:102430002E48FEF719FC2F4A03212C48FEF754FCC6
:10244000502203212948FEF72DFC03212748FEF7DF
:10245000FDFB00BF2448808CC5B200BF00BF00BF99
:102460002148C069C0F3801028B100BF40201E4938
:10247000086200BF00BF00BF1B48C069C0F3C000B6
:1024800088B900BF1848C069C0F3400058B900BF00
:102490001548C069C0F3800028B900BF1248C06960
:1024A00000F0010088B100BF08200F49086200BF9A
:1024B00000BF0220086200BF00BF0420086200BF06
:1024C00000BF0120086200BF00BF0B48007848B180
:1024D000029838B14FF0805009490860BFF34F8F20
:1024E000BFF36F8F3EBD0000004800400000024077
:1024F000E05C0008EC000020150000202000002017
:1025000004ED00E000BFFEE7002809DB00F01F0239
:10251000012191404209920002F1E022C2F800112B
:102520007047000002480068C0F3022070470000B6
:102530000CED00E010B5002804DB0A07130E054A75
:10254000135406E00A07140E034A00F00F031B1F82
:10255000D45410BD00E400E018ED00E007E00021D5
:1025600002E000BF4A1C91B2B1F57A7FF9DB011E8F
:10257000A0F1010290B2F2D1704710B5044601F00B
:10258000D3FD20B14FF0FF31206803F025F810BDD6
:1025900070B50546286802F057FC00240BE0084996
:1025A00051F824102868884204D10020044941F8D9
:1025B000240002E0641C052CF1D300BF70BD0000B4
:1025C000F404002070B5054600202860002415E0C2
:1025D000124850F8240080B904EB8400104A02EB42
:1025E0000011012002F017FE0C4941F824000846B2
:1025F00050F824002860012070BD641C052CE7D32E
:1026000001F092FD18B1012002F0F4FD2860286865
:1026100008B90020F0E70120EEE70000F4040020F4
:102620006403002010B5044601F07EFD28B10023AC
:102630001A461946206802F07BFE10BD704710B59F
:102640000023002204E0845C1C44E3B2541CE2B288
:102650008A42F8DB435410BD10B500240FE05B49FB
:1026600001EB840000F0ECF8002002E000BF411C08
:1026700088B241F288318842F8DB601CC4B2032C76
:10268000EDDB524818388169C069814220DA4F4831
:102690001838C169006A814206DC4C481838C069A4
:1026A0004A491839C86033E0484818388169006AD7
:1026B000814206DA45481838006A44491839C8602A
:1026C00026E042481838806940491839C8601FE040
:1026D0003E4818388169006A814206DC3B48183858
:1026E00080693A491839C86012E038481838C16919
:1026F000006A814206DA35481838006A33491839C9
:10270000C86005E031481838C06930491839C860D8
:102710002E481838C068B0F5000F07DB2B48183872
:10272000C06840F07F4029491839C86027481838E8
:10273000C068264918394969884204DA00202349CB
:10274000183988703EE021481838D0ED051AF8EEA7
:10275000E11AB0EE611AD0ED041AF8EEE11AF0EECB
:10276000610AD0ED031AF8EEE11AB0EE610A70EEDC
:10277000411AB0EE610A70EEC11AF0EE610AF5EE90
:10278000C00AF1EE10FA0AD0DFED111A60EE211A3C
:10279000B0EE610AC0EE201AB0EE610A03E0DFED90
:1027A0000D1AB0EE610AF2EE041A80EE212AB0EEA4
:1027B000420AFDEEC01A11EE900A40B203491839E0
:1027C000887000BF01481838807810BD540100207F
:1027D0000000FA430000000070B5044600200F49D5
:1027E000487008460470002006E000220B491831AA
:1027F00041F82020411CC8B20328F6DB07480078C6
:1028000050B1002505E000F06BF800B903E0681C4A
:10281000C5B2032DF7DB00BF70BD00003C010020F6
:1028200010B54FF400510548FEF794FB002002E07C
:1028300000BF411CC8B29628FADB10BD0004004856
:102840002DE9F0410546002400F03AF800F0AAF81E
:1028500000F0CAF806465EB9002707E0640000F001
:102860000DF808B144F00104781CC7B2182FF5DB4D
:102870002C60FFF7D5FF3046BDE8F08110B500228F
:102880004FF480410D48FEF76BFB4FF400510B48AD
:10289000FEF760FB00BF00BF00BF00BF4FF4005158
:1028A0000648FEF74FFB4FF480410448FEF732FB29
:1028B00008B1FF2400E00024204610BD00040048B9
:1028C00010B54FF400510548FEF73CFB002002E034
:1028D00000BF411CC8B26428FADB10BD00040048E8
:1028E0002DE9F047FFF7ECFF00F05CF800F07CF812
:1028F0000746002F50D10026804609E07600FFF7FA
:10290000BDFF08B146F0010608F1010000F0FF0824
:10291000B8F1180FF2DBFFF7B1FF8146FFF7AEFF0A
:102920008246FFF7ABFFFF2000F092F8FF2000F097
:102930008FF865244FF000080FE06006040E04F0E5
:10294000800018B1FF2000F083F802E0002000F0C2
:102950007FF808F1010000F0FF08B8F1070FECDB89
:10296000FFF78CFF2C254FF000080FE005F08000EA
:1029700018B1FF2000F06CF802E0002000F068F8C9
:102980006806050E08F1010000F0FF08B8F1080F15
:10299000ECDBFFF773FF00BFFFF742FF3846BDE8EF
:1029A000F087000010B500224FF480410D48FEF77B
:1029B000D7FA4CF250340EE04FF480410948FEF74C
:1029C000A9FA38B1002002E000BF411CC8B20A28B1
:1029D00001DAF9E703E0601E80B2041EECD100BF0B
:1029E00010BD00000004004870B5FF2400224FF421
:1029F00080411648FEF7B4FA42F210750EE04FF42B
:102A000080411248FEF786FA08B100240AE000204F
:102A100002E000BF411CC8B20A28FADB681E80B27F
:102A2000051EECD100BF7CB9FF24642507E04FF4FC
:102A300080410648FEF76EFA08B9002403E0681EDC
:102A400080B2051EF3D100BF204670BD00040048CF
:102A500010B50446012291030F48FEF781FA4FF4A6
:102A600000510D48FEF776FA2CB14FF480410A4828
:102A7000FEF770FA04E04FF480410748FEF762FA6F
:102A800000BF00BF00BF4FF400510348FEF75AFAE1
:102A900000BF00BF00BF10BD0004004830B50246B3
:102AA0000C46002011780811012C12DD00230BE0E8
:102AB000D15C01F00F014518E8B2D5186978091109
:102AC0004518E8B25D1CEBB2651E9D42F0DC00F0DB
:102AD0000F0030BD01204FF0904109690140814253
:102AE00000D100E0002109B1FF2070470020FCE781
:102AF00030B502460023501810F8014C002004E0C5
:102B0000155C1D44EBB2451CE8B24D1E8542F7DC56
:102B10009C4201D1002030BD0120FCE72DE9F041AD
:102B200004460D4629462046FFF7B8FF07466019C0
:102B300010F8016C06F00F06BE4202D10020BDE87D
:102B4000F0810120FBE7000010B5FEF7A1FD4C4825
:102B50000089401C4A490881084600893C2801DD5B
:102B6000002008814648817A012001F071FA44482A
:102B70004178032001F06CFA414890F906100420D6
:102B800001F066FA3E480189022001F061FA3C48F2
:102B9000407802281DDA00BF3A48806840F480601F
:102BA0003849886000BF80213748FEF7D5F94FF4D7
:102BB00080713548FEF7D0F940203349886200BF64
:102BC000304828304114021D13680B43136000BFC6
:102BD0000CE040212C48FEF7BFF94FF480712A48E1
:102BE000FEF7BAF980212848FEF7B6F904214FF024
:102BF0009040FEF798F918B10820FEF75FFA02E05E
:102C00000820FEF753FA01214FF09040FEF78BF9B0
:102C100018B10120FEF752FA02E00120FEF746FA51
:102C20000820184989680143164A916000BFFEF7E1
:102C30002FFF00BF01201349886100BF00BF0220A1
:102C4000886100BF00BF0820886100BF00BF10205E
:102C5000886100BF00BF1F20886100BF0320096892
:102C600021F007010143074A116000BF00BF074878
:102C7000006840F004000549086000BF30BF10BD87
:102C800098000020007000400008004810ED00E0AF
:102C900000BF1649096901F480310029F9D11349AF
:102CA000496921F4FF614FF4FF6292FAA2F2B2FA8D
:102CB00082F200FA02F211430C4A5161114649694D
:102CC00041F0020151611146496941F4803151617D
:102CD00000BF0649096901F480310029F9D103498F
:102CE000496921F00201014A516170470020024008
:102CF00070B502467E2400BF1C4D2D6905F4803559
:102D0000002DF9D1194D6D6905F0004525B1184D1B
:102D1000164EB560174DB560144D6D6925F4FF650D
:102D20004FF4FF6696FAA6F6B6FA86F604FA06F6A9
:102D300035430E4E7561104D28686B68DD43A8421F
:102D400002D00025156000E010600B4DA868EB680C
:102D5000DD43A84202D000250D6000E00860034D6D
:102D60006D6945F00045014E756170BD002002405F
:102D700023016745AB89EFCD00F0030810B57F2331
:102D800000BF1748006900F480300028F9D11448CA
:102D9000406900F0004020B11248114CA060124878
:102DA000A0600F48406920F4FF604FF4FF6494FA7C
:102DB000A4F4B4FA84F403FA04F42043084C6061E8
:102DC0000A480168001D02682046406940F0004042
:102DD0006061D043814201D0632010BDC8B2FCE7DE
:102DE0000020024023016745AB89EFCD00F80308BE
:102DF0002DE9F04104460D4600BF2948006900F462
:102E000080300028F9D12648006800F4806028B19D
:102E10002348006820F48060214908602048406908
:102E200000F0004020B11F481D4988601E4888609E
:102E30007E20FFF72DFF00BF1948006900F48030A5
:102E40000028F9D11648406940F001001449486152
:102E50002646F7431548066047602E46F7438660CE
:102E6000C76000BF0E48006900F480300028F9D127
:102E70000B48006900F0010028B10948006920F002
:102E80000100074908610648406920F00100044933
:102E900048610846406940F000404861BDE8F08163
:102EA0000020024023016745AB89EFCD00F0030805
:102EB00070B504462546EE4300BF2648006900F47D
:102EC00080300028F9D12348006800F4806028B1E0
:102ED0002048006820F480601E4908601D48406951
:102EE00000F0004020B11C481A4988601B488860E7
:102EF0007F20FFF7CDFE00BF1648006900F4803048
:102F00000028F9D11348406940F001001149486197
:102F100013480560001D066000BF0E48006900F4FC
:102F200080300028F9D10B48006900F0010028B179
:102F30000848006920F00100064908610548406919
:102F400020F00100034948610846406940F0004014
:102F5000486170BD0020024023016745AB89EFCD79
:102F600000F8030810B500BF13480068C0F34070B4
:102F7000F8B1124800893C281BDA1048807AC0B1A9
:102F8000FEF7A4F8FEF7FAFC0D49081FFFF7B0FEA4
:102F9000FFF762FB44B20948807A062801D1342C3D
:102FA00006DB064890F90600A04201D1FFF7CCFDF0
:102FB00000BFFEF78BF810BD94100240980000206F
:102FC000500100202DE9F041B8B006460124DC2173
:102FD00001A8FDF717FB13A700251BE03846FDF7F6
:102FE00067FA00F0FF084146384600F03FFBDB215E
:102FF00001A800F003FBB42000F0FAFB044624B95A
:1030000001A93046FDF730FA06E00A20FFF7A6FADC
:10301000681CC5B2032DE1DB00BF204638B0BDE817
:10302000F081000041542B4346473F0D0A00000049
:10303000FEB50124002000900190029011A6002509
:103040001BE03046FDF734FAC7B23946304600F08F
:103050000DFB0621684600F0D1FA142000F0C8FBF1
:1030600004462CB909A16846FDF7ECF900B106E069
:103070000A20FFF773FA681CC5B2032DE1DB00BF1D
:103080002046FEBD41540D0A000000004F4B0000D9
:103090002DE9F04188B0054668680188ADF8041054
:1030A00080788DF80600032101A8FFF721FD8046F6
:1030B0009DF804409DF80570B8F1000F3DD06C2CD0
:1030C00001D06D2C0DD1AE78142E00DD14263246C1
:1030D00001A86968FDF717FA314601A8FFF71EFD40
:1030E0008046B8F1000F26D12D480078B84222D191
:1030F0002B48807A01281ED140212A48FDF71EFF67
:103100004FF480712748FDF719FF80212548FDF70E
:1031100015FF6C2C0CD19DF80600FFF7C9FE9DF839
:1031200006001F4908704FF44870FFF717FA19E0BE
:103130006D2C17D116E0002414E019480078B8422D
:103140000FD15A2C06D05B2C05D05C2C04D05D2C02
:1031500004D102E000BF00BF00BF01E0002400BFB7
:1031600000E00024CCB100200F49C87088700846E8
:103170000079401C08710020487102208DF8180069
:103180008DF81940002007908DF81A0000231A4688
:1031900006A90648006802F0CBF808B0BDE8F08147
:1031A00098000020000800481600002010000020B1
:1031B0002DE9FE4F04460125002000900190029069
:1031C00020A70FF28C080FF29409002634E0072C98
:1031D00009D13846FDF76CF900F0FF0A5146384630
:1031E00000F044FA14E0082C09D14046FDF760F9DC
:1031F00000F0FF0A5146404600F038FA08E0484621
:10320000FDF756F900F0FF0A5146484600F02EFA45
:103210000621684600F0F2F9192000F0E9FA0546A7
:103220002DB911A16846FDF70DF900B106E00A209D
:10323000FFF794F9701CC6B2032EC8DB00BF284606
:1032400000F014B841542B42573D30370D0A0000AE
:1032500041542B42573D30380D0A000041542B4257
:10326000573D30390D0A00004F4B00001EBCBDE831
:10327000E08F00002DE9FE4F04460125002000905C
:103280000190029027A70FF2A8080FF2B0090FF2E1
:10329000B80A002640E0012C09D13846FDF708F9AC
:1032A00000F0FF0B5946384600F0E0F920E0022C10
:1032B00009D14046FDF7FCF800F0FF0B59464046A7
:1032C00000F0D4F914E0032C09D14846FDF7F0F8DA
:1032D00000F0FF0B5946484600F0C8F908E0504698
:1032E000FDF7E6F800F0FF0B5946504600F0BEF936
:1032F0000621684600F082F9192000F079FA0546A7
:103300002DB914A16846FDF79DF800B106E00A202A
:10331000FFF724F9701CC6B2032EBCDB00BF2846A1
:1033200000F01AB841542B43523D30310D0A0000D1
:1033300041542B43523D30320D0A000041542B437F
:10334000523D30330D0A000041542B43523D30347E
:103350000D0A00004F4B00001EBCBDE8E08F0000CE
:10336000FEB5054604246E78AC78082C00DD0824F0
:10337000224668466968FDF7C6F821466846FFF7A9
:103380005EF90F484078B04203D000200C49087124
:10339000C8700B484670601C09498871621C6946F8
:1033A0000848FDF7B0F8601CC1B2064800F05EF9AD
:1033B0000020034988700846C078401CC870FEBDD4
:1033C00016000020C40000202DE9F04188B0064618
:1033D00001241C2101A8FDF715F911A7002518E00B
:1033E0003846FDF765F800F0FF084146384600F022
:1033F0003DF9142101A800F001F91E2000F0F8F9B0
:10340000044624B901A93046FDF72EF803E0681CF4
:10341000C5B2032DE4DB00BF204608B0BDE8F08153
:1034200041542B49443F0D0A000000002DE9FE43A2
:1034300004460125002000900190029019A70FF288
:103440007008002627E04CB93846FDF731F800F047
:10345000FF094946384600F009F908E04046FDF703
:1034600027F800F0FF094946404600F0FFF8062122
:10347000684600F0C3F8322000F0BAF905462DB9CD
:103480000EA16846FCF7DEFF00B106E00A20FFF758
:1034900065F8701CC6B2032ED5DB00BF284600F0CD
:1034A0000FB8000041542B4E45543D30300D0A00FA
:1034B00041542B4E45543D30310D0A004F4B000016
:1034C00006BCBDE8F883000010B508210148FDF7EF
:1034D00035FD10BD00040048F0B58BB00446012551
:1034E0000020089009900A90202219496846FDF7AB
:1034F0004FF8224617A10DF10900FCF72FFF16A186
:103500006846FCF7F4FF00261BE06846FCF7D0FF96
:10351000C7B23946684600F0A9F8062108A800F0AD
:103520006DF81E2000F064F905462DB90BA108A81E
:10353000FCF788FF00B106E00A20FFF70FF8701CC7
:10354000C6B2032EE1DB00BF28460BB0F0BD000081
:10355000345D0008255800000D0A00004F4B0000A4
:103560002DE9FE43044601250020009001900290C1
:1035700019A70FF27008002627E04CB14046FCF76F
:1035800097FF00F0FF094946404600F06FF808E059
:103590003846FCF78DFF00F0FF094946384600F039
:1035A00065F80621684600F029F8192000F020F996
:1035B00005462DB90EA16846FCF744FF00B106E0B0
:1035C0000A20FEF7CBFF701CC6B2032ED5DB00BF6E
:1035D000284600F00FB8000041542B5249513D30AD
:1035E000300D0A0041542B5249513D30310D0A0033
:1035F0004F4B000006BCBDE8F883000070B50446E0
:103600000D4600201649087000BF1648006820F0DB
:1036100010001449086000BF03211348FDF7FAFAAF
:103620001148FDF7EFFA1048FDF7F0FA0E48FDF7E4
:10363000E5FA0D48FDF7DEFA03210B48FDF714FB10
:10364000224603210848FDF74FFB2A46032106487E
:10365000FDF728FB03210448FDF7F8FA70BD0000D0
:1036600014000020004800400000024070B50546EC
:103670000C46282C00DD282402211348FDF7CAFA45
:1036800000BF20201049486000BF00BF8020486074
:1036900000BF00BF4020486000BF00BF102048604E
:1036A00000BF02210848FDF7DFFA2A46022106483A
:1036B000FDF71AFB224602210348FDF7F3FA022127
:1036C0000148FDF7C3FA70BD00000240F0B58BB0B1
:1036D000044601250020089009900A9020221949EB
:1036E0006846FCF755FF224617A10DF10900FCF7CB
:1036F00035FE16A16846FCF7FAFE00261BE0684678
:10370000FCF7D6FEC7B239466846FFF7AFFF062181
:1037100008A8FFF773FF1E2000F06AF805462DB9D0
:103720000BA108A8FCF78EFE00B106E00A20FEF708
:1037300015FF701CC6B2032EE1DB00BF28460BB09C
:10374000F0BD0000145D0008255800000D0A0000BF
:103750004F4B00002DE9FE43044601250020009058
:103760000190029019A70FF27008002627E04CB1D3
:103770004046FCF79DFE00F0FF0949464046FFF732
:1037800075FF08E03846FCF793FE00F0FF09494654
:103790003846FFF76BFF06216846FFF72FFF192019
:1037A00000F026F805462DB90EA16846FCF74AFE42
:1037B00000B106E00A20FEF7D1FE701CC6B2032E4F
:1037C000D5DB00BF284600F00FB8000041542B5451
:1037D00049513D30300D0A0041542B5449513D3080
:1037E000310D0A004F4B000006BCBDE8F883000015
:1037F00010B5044607E00748007808B1002010BD66
:103800000120FEF7ABFE201EA4F101018CB2F2D123
:103810000220F4E7140000202DE9F041B8B005467D
:103820000C460026FFF750FE4FF480512748FDF765
:103830008DFB1E20FEF792FEFFF7FAFB06461EB92F
:1038400001A8FFF7C1FD0646002E35D1082D31D263
:10385000DFE805F0040B11171C21262B94F80080DB
:103860004046FFF7E3FD064625E027683846FFF7A8
:103870002DFF06461FE027683846FFF72DFE064657
:1038800019E001A8FFF79EFB064614E02078FFF739
:103890008FFC06460FE02078FFF7ECFC06460AE0B6
:1038A0002078FFF757FF064605E02078FFF758FE1F
:1038B000064600E000BF00BF4FF480510348FDF70B
:1038C0003DFB304638B0BDE8F081000000080048FC
:1038D0007CB5044665780026FCF792FF494948709C
:1038E000FEF7BAFE40B247498871FFF7F3F8454941
:1038F00088700846C07A4449087042480078487089
:103900004048807988703F48407800F00F00C870C8
:103910005A2D04D05B2D1ED06D2D5BD14BE00620BF
:10392000384988729C20C8720020C8709C20364993
:1039300008700846C07840F02000C87031484078D0
:10394000022803DA06203149087002E002202F49DC
:103950000870FF263FE02B4890F90600022812DD90
:103960000D20284988729D20C8720846C07A2849CF
:1039700008700846C07840F03000C870072023491E
:103980000870FF2616E007201E4988729C20C87226
:103990000020C8700846C07A1B4908701948407852
:1039A000022803DA06201949087002E003201749AB
:1039B0000870FF260FE00C20124988729C20C87204
:1039C0000020C8700846C07A0F49087008200F49C7
:1039D000087000E000BF00BF96B10A48C07A8DF8B9
:1039E000010000208DF800000748019004208DF8A8
:1039F000020000231A4669460648006801F098FC58
:103A00007CBD000098000020000000202400002061
:103A100008000020200000201CB5F9488479FCF73C
:103A2000EFFEF7494870FEF717FE40B2F44988717F
:103A3000FFF750F8F24988700846C07AF1490870DB
:103A4000EF4800784870EE4880798870EC484078FC
:103A500000F00F00C870EA48807A0E287ED2DFE8B6
:103A600000F00708FCFBFAF9F89BF7F6F5F4F336DB
:103A700000BFE348807890B90720E14988729C2014
:103A8000C872E0490870DE484078022803DA062050
:103A9000DD4908701AE00320DB49087016E00120B8
:103AA000D74988729C20C872D64908700846C078E9
:103AB00040F01000C870D2484078022803DA06208F
:103AC000D149087002E00120CF49087083E2CC4858
:103AD0008078B8B10120CA4988729C20C872C9494F
:103AE00008700846C07840F01000C870C44840789C
:103AF000022803DA0620C44908704CE00120C249BC
:103B0000087048E0BE4890F90600082816DD02203B
:103B1000BB4988729C20C8720020C8700846C07AD1
:103B2000B8490870B6484078022803DA0620B6493A
:103B3000087030E00320B44908702CE0B04890F9D8
:103B40000600022813DD0D20AD4988729D20C87241
:103B50000846C07AAB490870084600E024E2C07805
:103B600040F03000C8700720A749087013E0072014
:103B7000A34988729C20C8720846C07AA14908707F
:103B80009F484078022803DA06209F49087002E027
:103B900003209D4908701EE299488078B8B1012041
:103BA000974988729C20C872964908700846C07868
:103BB00040F01000C87092484078022803DA0620CE
:103BC000914908704DE001208F49087049E08C4808
:103BD00090F906003C280ADD0820894988729A205D
:103BE000C8728849087004208749087039E0844801
:103BF00090F90600082816DD0220814988729C2071
:103C0000C8720020C8700846C07A7E4908707C4897
:103C10004078022803DA06207B49087021E003205F
:103C2000794908701DE00720754988729C20C87288
:103C30000846C07A734908707148407802280DDA46
:103C40000620714908700CE06DE1AEE1AEE133E1B0
:103C50000CE107E0A1E041E09EE03EE003206A497C
:103C60000870B8E1664890F9060034281ADA032093
:103C7000634988729C20C8720020C8709C206149EA
:103C800008700846C07840F02000C8705C48407852
:103C9000022803DA06205C4908701DE002205A4918
:103CA000087019E00620564988729C20C8720020CE
:103CB000C8709C20534908700846C07840F0200026
:103CC000C8704F484078022803DA06204E49087031
:103CD00002E002204C4908707DE100BF484890F99D
:103CE00006003C280DDD0820454988729A20C872DC
:103CF0000020C8709A204349087004204249087087
:103D000049E03F4890F90600082816DA07203C49A8
:103D100088729C20C8720020C8700846C07A394951
:103D2000087037484078022803DA062036490870C0
:103D300031E00320344908702DE03148C07818285C
:103D400018DA2F48C078401C2D49C87002208872AC
:103D50009C20C8720846C07A2A49087028484078D2
:103D6000022803DA06202849087014E003202649B7
:103D7000087010E00420224988729D20C87208460D
:103D8000C07A204908700846C07840F01000C8701A
:103D900007201D4908701EE100BF194890F9060070
:103DA0003C2819DD00201649C870062088729C2026
:103DB000C872144908700846C07840F02000C870E6
:103DC0000F484078022803DA06200F4908704CE0BB
:103DD00002200D49087048E0094890F906000828BB
:103DE00014DA0920064988729B20C8720020C87026
:103DF0009B200449087005200349087035E0000045
:103E00009800002008000020240000207C48C07892
:103E100003281BDA7A48C078401C7949C87003200F
:103E200088729C20C872774908700846C07840F0B4
:103E30002000C87072484078022803DA06207249D0
:103E4000087012E00220704908700EE005206C49ED
:103E500088729D20C8726B4908700846C07840F08F
:103E60001000C870072068490870B4E0644890F9F1
:103E7000060034280CDD0820614988729A20C87237
:103E80000846C07A5F49087004205F49087012E054
:103E9000F0205B49C870042088729D20C8720846D3
:103EA000C07A584908700846C07840F01000C870C1
:103EB0000720554908708EE0514890F906003C28CB
:103EC0000DDD08204E4988729A20C8720020C87003
:103ED0009A204C49087004204B49087022E0484859
:103EE00090F90600082813DD1E204549C8700520FA
:103EF00088729D20C8720846C07A424908700846F8
:103F0000C07840F01000C87007203F49087009E0F1
:103F100009203B4988729B20C8723A4908700520E5
:103F20003949087057E03648C078032805DA344824
:103F3000C078401C3249C87035E03148C078052847
:103F40000CDA05202E49C870FEF786FB2F48C068A2
:103F50002E49086109202C49087024E02848C078BF
:103F6000401CC0B22649C8700A281CDDFEF774FB4D
:103F70002648C068254948610A4651691069FEF71C
:103F800037FF07201E4988729C20C8721D4908709F
:103F90001B484078022803DA06201B49087002E01B
:103FA00003201949087016E000BF00BF072014491C
:103FB00088729C20C8720846C07A1249087010485E
:103FC0004078022803DA06200F49087002E0032037
:103FD0000D49087000BF00BF0948C07A8DF8010084
:103FE00000208DF800000748019004208DF80200A1
:103FF00000231A4669460648006801F099F91CBD7D
:104000009800002008000020240000203C0100202F
:104010002000002070B501460020082914DA0B4C5E
:10402000002504F1500505EB81052E683046030C90
:10403000DC43A3B282B2934201D1104604E00529C9
:1040400001D1142000E0002070BD000000280040D5
:1040500070B58BB2DC43A2B211460904194308289B
:1040600008DA054C002504F1500505EB80052960B0
:1040700000BF00BF70BD000000280040FDF7DEFC5F
:104080000120FFF7C7FF254988720320FFF7C2FF11
:10409000224948700420FFF7BDFF40B21F498871D4
:1040A0000220FFF7B7FF1D4908810846807A1C49A6
:1040B0000870FCF76DFF00BF1A48806820F480602C
:1040C0001849886000BF00BF8815886100BF00BF25
:1040D0001F20886100BFFDF72BFFFEF743FFFDF7B0
:1040E0004DFCFDF70DFCFDF755FBFDF749FDFDF718
:1040F0000BFDFDF7A3FCFDF7F7FCFF20FEF76CFBC3
:10410000FCF7FCFB09E0022000F0F0FE032000F0C9
:10411000CBFEFCF7CBFC00F085FFF4E79800002015
:10412000160000200070004010B50748007848B91C
:1041300001F078FB012803D001200349087010BD6D
:104140000020FCE70120FAE7270000202DE9F041DC
:1041500005460E461648076816480068001D00F020
:1041600073FD681C38B936B112480168091D124840
:1041700000F003FE1AE07C190E4800684460BC425F
:1041800007D20C480168091D0C48006800F0DBFDEF
:104190000CE008480168091D0948006800F0D3FDDB
:1041A00008480068844201D206480460BDE8F081F6
:1041B0005C00002048000020B02D002050000020AE
:1041C0004C0000207800002010B5044600F0E2FD0D
:1041D00024480068401C234908602348006840B90F
:1041E000214804600846006801280DD100F0E8F974
:1041F0000AE01E48006838B91B480068C06AE16AD6
:10420000884201D81848046019480068401C1849C1
:1042100008600846006860641649E06A09688842D8
:1042200002D91449E06A0860E16A01EB8101124A8F
:1042300002EB8100211D00F0A0FD00F0BDFD0B4848
:10424000006868B108480068C06AE16A884207D21D
:104250004FF0805009490860BFF34F8FBFF36F8F55
:1042600010BD00005800002048000020640000201D
:1042700074000020600000200029002004ED00E010
:1042800008B500F087FD0E480068A8B90D4800F099
:104290004AFD0D4800F047FD0A480C4908600A48ED
:1042A0000B49086000200B4B0B4A102100900520A1
:1042B00000F0E6FF0249086000F07EFD08BD000046
:1042C0008C000020C42D0020D82D00208400002068
:1042D00088000020EC2D00203C2E002010B516E0B8
:1042E00000F058FD0C48C068C468201D00F0ACFC0C
:1042F0000A480068401E0949086009480068401ED5
:104300000749086000F058FD204600F05FF80448B7
:1043100000680028E4D110BD9C2D0020580000202A
:104320005400002070B504460D46206C70B1216C1D
:10433000E0680144E160D4E90210884201D32168B9
:10434000E1602846226CE168FCF7DDF870BD2DE9DC
:10435000F04104460F4615464FF00008A66B206C4E
:1043600048B9206800282CD1A06801F0FDFA8046E9
:104370000020A06025E07DB93946226C6068FCF71A
:10438000C2F8216C606808446060D4E90101884289
:1043900017D32068606014E03946226CE068FCF7AF
:1043A000B2F8216CE068411AE1602168E068884257
:1043B00003D2216CA068411AE160022D01D106B13F
:1043C000761E701CA0634046BDE8F08110B504461F
:1043D00094F8590030B9206B00F0FEFC204600F044
:1043E000FBFC06E094F85900012802D1204600F0B9
:1043F000F3FC10BD01464A6A22B10A6B1268C2F191
:10440000380000E0002070470146084A1268126830
:104410000AB9012200E000220A600A6822B9034AB0
:104420001268D268106800E0002070478400002005
:1044300030B54FF40053174800F007042CB1C01DED
:1044400020F00700134C041B1B1B0246124C226079
:104450000024114D6C60D018083820F007000F4C74
:10446000206000240D4D2D686C600C4D2D682C6073
:104470001146441A4C60094C24680C60084D4C6885
:104480002C60084D4C682C604FF00044064D2C60A9
:1044900030BD0000000900202C0000203400002066
:1044A0003C000020380000204000002000BFFFF743
:1044B00015FF07480068012807D94FF080500549CB
:1044C0000860BFF34F8FBFF36F8F00F0E9FBEEE79B
:1044D0000029002004ED00E010B5044654B100208E
:1044E000A06020600021E16000231A4619462046A2
:1044F00000F01EFF10BD2DE9F04106460D4617469F
:104500009846069C0DB9246000E02760E6632564A8
:104510000121204600F0CCFE84F84C80BDE8F081FB
:104520002DE9F05F81460E4690469A460A9F0C9C04
:104530004FEA8801A522206BFCF75CF8A8F1010086
:10454000216B01EB800B2BF0070B86B1002507E0F8
:10455000715D04F134004155705D00B902E06D1CDD
:10456000102DF5D300BF00214320015502E00020AB
:1045700084F83400382F00D33727E762E76400203F
:104580002065201D00F0DCFB04F1180000F0D8FBD2
:104590002461C7F13800A06164620020606584F87E
:1045A000580052464946584600F0ECFA20600B98F5
:1045B00008B10B98046000F000B830BCBDE8C09FA3
:1045C00010B5002407E004EB84010F4A02EB8100E0
:1045D00000F0A9FB641C382CF5D30C4800F0A3FBB9
:1045E0000B4800F0A0FB0B4800F09DFB0A4800F0D0
:1045F0009AFB0A4800F097FB044809490860044800
:104600000849086010BD000000290020602D00202E
:10461000742D0020882D00209C2D0020B02D00201E
:104620004C0000205000002010B50146164800E064
:10463000006803688B42FBD30246436813448B42F5
:1046400004D143684C682344436001460A464B68E2
:1046500013440468A34211D10C4C03682468A3429C
:1046600008D04B680468646823444B6003681B6887
:104670000B6005E0054B1B680B6001E003680B60F5
:10468000884200D0016010BD2C00002034000020C2
:104690002DE9F04104460D4616461F464FF000082E
:1046A00065602461B5420CD8F01BA169884202D331
:1046B0004FF0010811E0211D0948006800F043FB9C
:1046C0000BE0BE4204D2BD4202D34FF0010804E029
:1046D000211D0448006800F036FB4046BDE8F0812B
:1046E000880000208400002070B5054600F052FBD1
:1046F000A86B08B9012400E0002400F05DFB20460F
:1047000070BD70B5054600F045FBA86BE96B8842AB
:1047100001D1012400E0002400F04EFB204670BDD2
:10472000F8B505460E4614480068C068C468201DE8
:1047300000F08AFA94F8280000F0040088B1A0691B
:1047400041192B4632462046FFF7A2FF78B10020E0
:1047500003462A4601460090204601F06BFA0746C0
:1047600005E094F8280020F0010084F82800204695
:10477000216A8847F8BD000084000020F0B587B0AA
:1047800076E00398002805DA04AED6E90020B16887
:10479000904700BF039800286ADB059C606908B950
:1047A000012000E0002010B9201D00F04DFA02A801
:1047B00000F0BEF8054603980A2857D2DFE800F05B
:1047C0000905072D354606082E3600BF00BF00BF7D
:1047D00000BF94F8280040F0010084F828000498F5
:1047E000A269811803462A462046FFF751FF98B177
:1047F0002046216A884794F8280000F0040058B148
:10480000002000900498A169421800231946204610
:1048100001F010FA074600BF29E000BF94F8280015
:1048200020F0010084F8280021E000BF94F828005F
:1048300040F0010084F828000498A061A0694119A3
:104840002B462A462046FFF723FF10E094F8280065
:1048500000F0020018B9204600F0BEFA05E094F816
:10486000280020F0010084F8280000E000BF00BF0D
:10487000002203A90348006800F02CFE002880D124
:1048800007B0F0BD8C000020F8B505460C4600F0DE
:1048900013FC684600F04CF80646009820BB44B96B
:1048A000B54206D801F022F931462846FFF738FF15
:1048B0001CE03CB10E480068006808B9012000E027
:1048C00000200446A91B22460A48006800F0C6FAE8
:1048D00001F00CF950B94FF0805007490860BFF360
:1048E0004F8FBFF36F8F01E001F000F9F8BD0000BA
:1048F000880000208C00002004ED00E00A490968CF
:10490000096809B9012100E0002121B14FF0FF3110
:10491000064A116006E004490968C968C868034A84
:1049200041681160704700004C00002078000020B2
:1049300070B5044600F086FF0546074800688542CA
:1049400004D200F00BF80120206001E0002020607C
:1049500001480560284670BD940000202DE9F84309
:1049600028E01E480068C06805681C480068C068E8
:10497000C468201D00F068F92046216A884794F831
:10498000280000F00400A8B1A0694619AE4207D97A
:1049900066602461211D1148006800F0D4F909E027
:1049A000002003462A4601460090204601F042F9C5
:1049B000804600BF09480068006808B9012000E08F
:1049C00000200028CDD00548076805480068034945
:1049D000086003480760BDE8F883000084000020F9
:1049E0008800002000BF102080F31188BFF34F8F94
:1049F000BFF36F8F00BF00BFFEE708B500BF68467A
:104A0000FFF702FD044620460099FFF73DFFFFF740
:104A1000B5FEF4E770B5044600F0BCF994F94550D2
:104A200010E0606A08B9012000E0002038B904F104
:104A3000240001F01BF818B100F084FA00E003E054
:104A4000681E45B2002DECDC00BFFF2084F8450055
:104A500000F0B2F900F09EF994F9445010E020699A
:104A600008B9012000E0002048B904F1100000F06E
:104A7000FDFF08B100F066FA681E45B200E001E0F3
:104A8000002DECDC00BFFF2084F8440000F094F916
:104A900070BD00002DE9F04105464FF0000800F020
:104AA0000BFB2B48006808B9FFF7C2FC29480068D7
:104AB0002840002847D145B1083505F0070020B14E
:104AC00005F00700C0F108000544002D3BD0224846
:104AD0000068854237D8214E3046046801E02646FA
:104AE00024686068A84202D220680028F7D11848DC
:104AF0000068844227D0306800F1080820683060E0
:104B00006068401B102807D967196068401B7860EF
:104B100065603846FFF788FD0F4960680968081A24
:104B20000D490860084600680D490968884203D2AB
:104B3000094800680A49086006496068096808432E
:104B400060600020206000F0D1FF4046BDE8F081A9
:104B50003400002040000020380000202C000020FD
:104B60003C0000200648006830B10549096801F1A1
:104B70005000096D491C0160014800687047000041
:104B800048000020001F4FF080730360001F21F0D9
:104B900001030360001F054B036014380260001F0F
:104BA0006FF002030360203870470000E5490008F9
:104BB0001CB500BFFF201349087000BF4FF4F57209
:104BC00069461148006800F085FC0446012C0ED1AE
:104BD0009DF8000018B96846FEF7C2FBEEE79DF8A5
:104BE00000000128EAD16846FEF752FAE6E70748D6
:104BF000C0780028E2D005488078401C03498870BE
:104C0000DCE7000015000020200000201600002036
:104C10001CB500BF00BF41F2743269460848006805
:104C200000F058FC0446012C03D16846FEF750FE04
:104C3000F1E7002003494871FEF7EEFEEBE70000C4
:104C4000100000209800002001460A69D1E90130D7
:104C50009860D1E9010358605068884201D18868A2
:104C60005060002008611068401E10601068704796
:104C7000034B0360034B0B608023136070470000FD
:104C80000805002064050020034B0360034B0B6004
:104C9000502313607047000064070020C007002005
:104CA00010B500BF4AF6AA201B49086000BF1B4888
:104CB000807A0B281FD01948807A08281BD0174803
:104CC000807A092817D01548807A022813D0134813
:104CD000807A03280FD01148807A04280BD00F481F
:104CE000807A052807D00D48807A0C2803D00B481D
:104CF000807A0D2806D10A48C07832280BDDFDF7EE
:104D000023FF08E00648C078032802DC0448007945
:104D100008B1FDF719FF10BD0030004098000020D9
:104D200016000020704700F1080141604FF0FF318C
:104D3000816000F10801C1600161002101607047DC
:104D400000210161704710B502460B685C1C0CB96C
:104D5000106907E002F1080000E040684468246838
:104D60009C42FAD944684C604C68A16088604160FC
:104D70000A611468641C146010BD42684A6093683C
:104D80008B60936859609160086103685B1C0360E5
:104D90007047000000BF102080F31188BFF34F8FD1
:104DA000BFF36F8F00BF03480068401C01490860D3
:104DB000704700004400002006480068401E054976
:104DC00008600846006820B9002080F3118800BF01
:104DD00000BF70474400002070B506463546D6B186
:104DE000083D2C460C4960680968084098B1206865
:104DF00088B90949606809688843606000F05CF917
:104E00000649606809680844044908602046FFF7BD
:104E10000BFC00F06BFE70BD40000020380000204D
:104E200000204FF0E02108618861064800684FF4D7
:104E30007A71B0FBF1F0401E4FF0E021486107208D
:104E4000086170472800002070B50446254695F893
:104E5000460010B92846FFF7BFFF70BD2DE9F041AD
:104E600005460E4617462C46FFF794FF94F944007A
:104E7000401C10B9002084F8440094F94500401CFF
:104E800010B9002084F84500FFF796FFA06B28B901
:104E90003A46314604F1240000F06AF82046FFF754
:104EA000B9FDBDE8F08100001CB50446FCF728FB05
:104EB000FCF79EFB00220821032000F0C1F90649FF
:104EC0000860002003464FF4C07204A1CDE9004001
:104ED000054800F047FC1CBD200000204C4F52410B
:104EE0005F70696C6F740000B14B00081CB504461C
:104EF000FCF7E8FBFCF7E8FB00220821052000F0A6
:104F00009FF906490860002003464FF4207204A16F
:104F1000CDE90040044800F025FC1CBD1000002035
:104F20006D61696E00000000114C000803490968BA
:104F3000016003490968416070470000700000206B
:104F40005C00002001200149086070476C000020CF
:104F500070B505460C460548016818312846FFF72C
:104F6000F2FE01212046FFF7F1F870BD4800002055
:104F700070B506460D46144606480168183130469D
:104F8000FFF7FBFE0CB14FF0FF3521462846FFF737
:104F9000DDF870BD480000202DE9F04706460F46B9
:104FA00034464FF00109002E35D0E06CB84201D2F2
:104FB0003D4600E0E56CE06AA8422CD0206D012857
:104FC00029D1D4F82C80E562A06900F0004010B926
:104FD000C5F13800A06108EB8801104A02EB81019D
:104FE0006069884201D1012000E0002098B1201DB5
:104FF000FFF72AFE0A49E06A0968884202D908498F
:10500000E06A0860E16A01EB8101044A02EB810079
:10501000211DFFF7B2FEBDE8F08700000029002047
:105020006000002010B586B000200590049003AA0F
:1050300004A905A8FFF71CFE0022DDE904101346B1
:10504000CDE90021029015A11648039A00F0BFFB9C
:10505000154908600846006808B1012400E00024F2
:10506000012C02D100F0B6FD0446012C14D100BF82
:10507000102080F31188BFF34F8FBFF36F8F00BFF5
:105080004FF0FF30094908600120094908600020FD
:105090000849086000F070F806B010BD49444C455E
:1050A00000000000AD4400087C00002078000020D3
:1050B000640000205C00002002480068401C014998
:1050C000086070478000002070B52648006818B15D
:1050D00001202549086043E0002023490860234857
:1050E0000068046B4FF0A5352068B0F1A53F0BD1E7
:1050F0006068B0F1A53F07D1A068B0F1A53F03D12A
:10510000E068B0F1A53F05D0184801683431006867
:10511000FFF708FE1648016800E0491E01EB810018
:10512000144A52F8200008B9012000E000200028AD
:10513000F3D101EB81020F4B03EB8200426852680E
:10514000426000F108024368934202D1426852680B
:1051500042604268D268054B1A600548016000BF92
:1051600070BD0000800000206C000020480000207E
:10517000600000200029002010B50E48006840F4AF
:105180007F000C4908600846006840F07F400860D6
:10519000FFF746FE002008490860FBF773F8074850
:1051A000006840F0404005490860FBF757F80020D0
:1051B00010BD000020ED00E04400002034EF00E0CE
:1051C00010B500BF102080F31188BFF34F8FBFF3DD
:1051D0006F8F00BF00F03CFB18B14FF080500449C6
:1051E000086000BF002080F3118800BF10BD0000E0
:1051F00004ED00E02DE9F041044601260027224697
:105200000021012000F01CF805462846FFF764F94C
:105210002846BDE8F0812DE9F84304460D460127F4
:105220004FF000082B46002211460120009400F0A8
:1052300027F806463046FFF74FF93046BDE8F883B9
:105240002DE9F84307460D4690460DB9002601E0CA
:1052500007FB05F606F15000FFF71CFC044664B19D
:10526000A14609F15009002084F8460043464A4609
:10527000294638460094FFF73EF92046BDE8F883FA
:105280002DE9F84306460F4690461D46DDF820906E
:105290002C464CB1012084F846004B464246394624
:1052A00030460094FFF727F92046BDE8F883000058
:1052B00070B505460E462C46FFF76CFDD4E90F127B
:1052C000206801FB0200A0600020A06320686060ED
:1052D000E06B401E226C216800FB0211E160FF20A0
:1052E00084F8440084F845009EB9206908B901207B
:1052F00000E00020A8B904F1100000F0B7FB80B175
:105300004FF0805009490860BFF34F8FBFF36F8F94
:1053100007E004F11000FFF706FD04F12400FFF799
:1053200002FDFFF749FD012070BD000004ED00E023
:105330002DE9FF4383B0074688461D464FF000091C
:105340003C4600BFFFF726FDA06BE16B884201D30E
:10535000022D28D12A4641462046FEF7F8FF064690
:10536000606A08B9012000E0002068B904F1240057
:1053700000F07CFB88B14FF0805032490860BFF3E9
:105380004F8FBFF36F8F08E03EB14FF080502D4933
:105390000860BFF34F8FBFF36F8FFFF70DFD012044
:1053A00007B0BDE8F083059818B9FFF705FD0020A8
:1053B000F6E7B9F1000F04D101A8FFF7B7FD4FF0F0
:1053C0000109FFF7F9FCFFF777FEFFF7E3FC94F91B
:1053D0004400401C10B9002084F8440094F94500B2
:1053E000401C10B9002084F84500FFF7E5FC05A932
:1053F00001A800F089F9F0B92046FFF782F9A0B1C1
:1054000004F110000599FFF7A3FD2046FFF702FB0A
:1054100000F06CFB002895D14FF0805009490860DE
:10542000BFF34F8FBFF36F8F8CE72046FFF7F2FA81
:1054300000F05CFB86E72046FFF7ECFA00F056FB35
:105440000020ADE704ED00E02DE9F05F05468A4657
:1054500016461F462C4600BF1021EFF3118081F342
:105460001188BFF34F8FBFF36F8F00BF8146A06BD2
:10547000E16B884201D3022F20D194F945B03A461E
:1054800051462046FEF763FF0BF1010070B9606AD8
:1054900008B9012000E0002068B904F1240000F000
:1054A000E5FA40B13EB10120306004E00BF10100AB
:1054B00040B284F845004FF0010801E04FF00008C9
:1054C00000BF89F3118800BF404600F000B830BC2F
:1054D000BDE8C09F2DE9F74183B005460F464FF068
:1054E00000082C4600BFFFF755FCA66BF6B1394605
:1054F0002046FEF717FF701EA063206908B901203F
:1055000000E0002060B904F1100000F0AFFA38B1FB
:105510004FF080502F490860BFF34F8FBFF36F8F5C
:10552000FFF74AFC012006B0BDE8F081059818B9E4
:10553000FFF742FC0020F6E7B8F1000F04D101A804
:10554000FFF7F4FC4FF00108FFF736FCFFF7B4FD5E
:10555000FFF720FC94F94400401C10B9002084F8A7
:10556000440094F94500401C10B9002084F845001F
:10557000FFF722FC05A901A800F0C6F8F0B9204603
:10558000FFF7B2F8A0B104F124000599FFF7E0FCA1
:105590002046FFF73FFA00F0A9FA0028A3D14FF008
:1055A00080500C490860BFF34F8FBFF36F8F9AE7AD
:1055B0002046FFF72FFA00F099FA94E72046FFF70C
:1055C00029FA00F093FA2046FFF78EF800288AD0D7
:1055D0000020A8E704ED00E02DE9F34182B0054684
:1055E00000272C46B84600BFFFF7D4FBA66BFEB1E0
:1055F000701EA063206810B9FFF7B4FAA06020699C
:1056000008B9012000E0002060B904F1100000F0AA
:105610002DFA38B14FF080503A490860BFF34F8FF0
:10562000BFF36F8FFFF7C8FB012004B0BDE8F08126
:10563000039818B9FFF7C0FB0020F6E71FB96846CA
:10564000FFF774FC0127FFF7B7FBFFF735FDFFF706
:10565000A1FB94F94400401C10B9002084F84400D8
:1056600094F94500401C10B9002084F84500FFF76C
:10567000A3FB03A9684600F047F840BB2046FFF7AC
:1056800033F8F0B1206838B9FFF784FBA06800F068
:105690009BF98046FFF790FB04F124000399FFF784
:1056A00057FC2046FFF7B6F900F020FA00289BD1FE
:1056B0004FF0805013490860BFF34F8FBFF36F8FD7
:1056C00092E72046FFF7A6F900F010FA8CE7204693
:1056D000FFF7A0F900F00AFA2046FFF705F80028C6
:1056E00082D0B8F1000F0BD0FFF754FB2046FEF735
:1056F00081FE06463146A068FFF74EFCFFF75CFBD3
:10570000002092E704ED00E070B506460C46FFF776
:1057100041FB124802687068131A2068401C08B9DF
:10572000002517E00E4930680968884204D0706887
:10573000904201D801250DE02068984207D92068E1
:10574000C01A20603046FFF7F1FB002502E0002080
:1057500020600125FFF730FB284670BD5C0000206B
:10576000700000202DE9FF4F85B08046894617461E
:10577000DDE912ABB800FFF78DF9064656B15C20A3
:10578000FFF788F904460CB1266304E03046FFF7C2
:1057900023FB00E000248CB1002084F85900CDE9FF
:1057A00000ABCDE902403A4649464046089BFEF729
:1057B000B7FE2046FEF708FD012501E04FF0FF355A
:1057C000284609B000F000B830BCBDE8C08F2DE914
:1057D000F04F85B00746884691469A46DDE90EB6F9
:1057E000109CACB1A6B125462E63022085F8590065
:1057F000002004A953464A46CDE900B1CDE9025044
:1058000041463846FEF78CFE2846FEF7DDFC01E0F7
:1058100000200490049805B000F000B830BCBDE84A
:10582000C08F00000549096809B9012005E0044955
:10583000096809B9022000E00020704764000020D8
:105840008000002001490868704700005C000020CB
:105850002DE9F041002739480068002862D1384816
:105860000068451C364805608DB93648D0F8008080
:1058700035480068334908603348C0F80080334831
:105880000068401C31490860FFF738F800BF304815
:10589000006885423AD300BF2A480068006808B90A
:1058A000012000E0002020B14FF0FF3028490860BF
:1058B0002BE024480068C068C4686668B54202D21C
:1058C0002348066021E0201DFFF7BEF9A06A18B149
:1058D00004F11800FFF7B8F91E49E06A0968884228
:1058E00002D91C49E06A0860E16A01EB81011A4AA9
:1058F00002EB8100211DFFF740FA1849E06A0968B0
:10590000C96A8842C8D30127C6E700BF13480068A8
:10591000C06A00EB8000104951F82000012800D92E
:10592000012704E00E480068401C0D4908600D483E
:10593000006800B101273846BDE8F08180000020F2
:105940005C0000204C00002050000020700000206F
:10595000780000206000002000290020480000207E
:10596000680000206C00002070B505462C4600261B
:105970001DB3206D401E2065E16CE06A88421CD09A
:10598000206DD0B9201DFFF75FF9E06CE062E06A9E
:10599000C0F13800A0610A49E06A0968884202D96A
:1059A0000749E06A0860E16A01EB8101054A02EB00
:1059B0008100211DFFF7E1F90126304670BD00008E
:1059C000600000200029002070B505462C46002606
:1059D000002D42D02249E06A0968C96A884235D25E
:1059E000A06900F0004028B91D480068C06AC0F1F5
:1059F0003800A061E16A01EB81011A4A02EB8101E2
:105A00006069884201D1012000E00020C0B1201D62
:105A1000FFF71AF912480068C06AE0621249E06AAA
:105A20000968884202D91049E06A0860E16A01EB1E
:105A300081010C4A02EB8100211DFFF79EF903E072
:105A400007480068C06AE062012606E00449E06C8D
:105A50000968C96A884200D20126304670BD00003C
:105A600048000020002900206000002070B5064694
:105A7000F068C46804F11800FFF7E6F815480068FC
:105A8000A0B9201DFFF7E0F81349E06A09688842D1
:105A900002D91149E06A0860E16A01EB81010F4A0D
:105AA00002EB8100211DFFF768F904E004F1180101
:105AB0000B48FFF762F90B49E06A0968C96A884236
:105AC00004D9012501200849086000E00025284686
:105AD00070BD000080000020600000200029002030
